{
  "contractName": "simple",
  "abi": [
    {
      "inputs": [],
      "name": "key",
      "outputs": [
        {
          "internalType": "uint32",
          "name": "",
          "type": "uint32"
        }
      ],
      "stateMutability": "view",
      "type": "function"
    },
    {
      "inputs": [
        {
          "internalType": "uint32",
          "name": "_val",
          "type": "uint32"
        }
      ],
      "name": "set",
      "outputs": [],
      "stateMutability": "nonpayable",
      "type": "function"
    },
    {
      "inputs": [],
      "name": "get",
      "outputs": [
        {
          "internalType": "uint32",
          "name": "",
          "type": "uint32"
        }
      ],
      "stateMutability": "view",
      "type": "function"
    }
  ],
  "bytecode": "0x608060405234801561001057600080fd5b506101bc806100206000396000f3fe608060405234801561001057600080fd5b50600436106100415760003560e01c80633943380c1461004657806358e3ca1c146100645780636d4ce63c14610080575b600080fd5b61004e61009e565b60405161005b919061010d565b60405180910390f35b61007e60048036038101906100799190610159565b6100b2565b005b6100886100d5565b604051610095919061010d565b60405180910390f35b60008054906101000a900463ffffffff1681565b806000806101000a81548163ffffffff021916908363ffffffff16021790555050565b60008060009054906101000a900463ffffffff16905090565b600063ffffffff82169050919050565b610107816100ee565b82525050565b600060208201905061012260008301846100fe565b92915050565b600080fd5b610136816100ee565b811461014157600080fd5b50565b6000813590506101538161012d565b92915050565b60006020828403121561016f5761016e610128565b5b600061017d84828501610144565b9150509291505056fea2646970667358221220838b97bd5c2e67c1cf8978ad189c9e7c88bd03ca46e0aeb5d6979337de11d09c64736f6c63430008110033",
  "immutableReferences": {},
  "source": "//SPDX-License-Identifier:MIT\r\npragma solidity ^0.8.17;\r\ncontract simple {\r\n    uint32 public key;\r\n\r\n    function set(uint32 _val)  public  {\r\n        key = _val;\r\n    }\r\n\r\n    function get() view  public returns(uint32){\r\n        return key;\r\n    }\r\n}",
  "sourcePath": "C:\\Users\\HP\\Desktop\\SupplyChainDApp\\contracts\\small.sol",
  "compiler": {
    "name": "solc",
    "version": "0.8.17+commit.8df45f5f.Emscripten.clang"
  },
  "schemaVersion": "3.4.16",
  "updatedAt": "2024-07-22T16:33:42.698Z",
  "devdoc": {
    "kind": "dev",
    "methods": {},
    "version": 1
  },
  "userdoc": {
    "kind": "user",
    "methods": {},
    "version": 1
  }
}