{
  "contractName": "supplyChainoldd",
  "abi": [
    {
      "inputs": [],
      "name": "owner_id",
      "outputs": [
        {
          "internalType": "uint32",
          "name": "",
          "type": "uint32"
        }
      ],
      "stateMutability": "view",
      "type": "function"
    },
    {
      "inputs": [],
      "name": "participants_id",
      "outputs": [
        {
          "internalType": "uint32",
          "name": "",
          "type": "uint32"
        }
      ],
      "stateMutability": "view",
      "type": "function"
    },
    {
      "inputs": [
        {
          "internalType": "uint32",
          "name": "",
          "type": "uint32"
        },
        {
          "internalType": "uint256",
          "name": "",
          "type": "uint256"
        }
      ],
      "name": "productTracker",
      "outputs": [
        {
          "internalType": "uint32",
          "name": "",
          "type": "uint32"
        }
      ],
      "stateMutability": "view",
      "type": "function"
    },
    {
      "inputs": [],
      "name": "product_id",
      "outputs": [
        {
          "internalType": "uint32",
          "name": "",
          "type": "uint32"
        }
      ],
      "stateMutability": "view",
      "type": "function"
    },
    {
      "inputs": [],
      "name": "IsParticipant",
      "outputs": [
        {
          "internalType": "bool",
          "name": "",
          "type": "bool"
        }
      ],
      "stateMutability": "view",
      "type": "function"
    },
    {
      "inputs": [
        {
          "internalType": "uint32",
          "name": "partId",
          "type": "uint32"
        },
        {
          "internalType": "string",
          "name": "_participantName",
          "type": "string"
        },
        {
          "internalType": "string",
          "name": "_participantType",
          "type": "string"
        }
      ],
      "name": "addParticipant",
      "outputs": [],
      "stateMutability": "nonpayable",
      "type": "function"
    },
    {
      "inputs": [
        {
          "internalType": "uint32",
          "name": "_pId",
          "type": "uint32"
        }
      ],
      "name": "getParticipant",
      "outputs": [
        {
          "internalType": "string",
          "name": "",
          "type": "string"
        },
        {
          "internalType": "string",
          "name": "",
          "type": "string"
        },
        {
          "internalType": "address",
          "name": "",
          "type": "address"
        }
      ],
      "stateMutability": "view",
      "type": "function"
    },
    {
      "inputs": [
        {
          "internalType": "uint32",
          "name": "prodId",
          "type": "uint32"
        },
        {
          "internalType": "uint32",
          "name": "partId",
          "type": "uint32"
        },
        {
          "internalType": "string",
          "name": "_productName",
          "type": "string"
        },
        {
          "internalType": "address",
          "name": "_productOwner",
          "type": "address"
        },
        {
          "internalType": "uint32",
          "name": "_productCost",
          "type": "uint32"
        }
      ],
      "name": "addProduct",
      "outputs": [],
      "stateMutability": "nonpayable",
      "type": "function"
    },
    {
      "inputs": [
        {
          "internalType": "uint32",
          "name": "_productId",
          "type": "uint32"
        }
      ],
      "name": "getProduct",
      "outputs": [
        {
          "internalType": "string",
          "name": "",
          "type": "string"
        },
        {
          "internalType": "address",
          "name": "",
          "type": "address"
        },
        {
          "internalType": "uint32",
          "name": "",
          "type": "uint32"
        },
        {
          "internalType": "uint32",
          "name": "",
          "type": "uint32"
        }
      ],
      "stateMutability": "view",
      "type": "function"
    },
    {
      "inputs": [
        {
          "internalType": "uint32",
          "name": "_productId",
          "type": "uint32"
        },
        {
          "internalType": "uint32",
          "name": "user1Id",
          "type": "uint32"
        },
        {
          "internalType": "uint32",
          "name": "user2Id",
          "type": "uint32"
        }
      ],
      "name": "newOwner",
      "outputs": [
        {
          "internalType": "bool",
          "name": "",
          "type": "bool"
        }
      ],
      "stateMutability": "nonpayable",
      "type": "function"
    },
    {
      "inputs": [
        {
          "internalType": "uint32",
          "name": "_productId",
          "type": "uint32"
        }
      ],
      "name": "getTracking",
      "outputs": [
        {
          "internalType": "uint32[]",
          "name": "",
          "type": "uint32[]"
        }
      ],
      "stateMutability": "view",
      "type": "function"
    },
    {
      "inputs": [
        {
          "internalType": "uint32",
          "name": "_productId",
          "type": "uint32"
        }
      ],
      "name": "getOwnership",
      "outputs": [
        {
          "internalType": "uint32",
          "name": "",
          "type": "uint32"
        },
        {
          "internalType": "uint32",
          "name": "",
          "type": "uint32"
        },
        {
          "internalType": "address",
          "name": "",
          "type": "address"
        }
      ],
      "stateMutability": "view",
      "type": "function"
    }
  ],
  "bytecode": "0x608060405260008060006101000a81548163ffffffff021916908363ffffffff16021790555060008060046101000a81548163ffffffff021916908363ffffffff16021790555060008060086101000a81548163ffffffff021916908363ffffffff16021790555034801561007357600080fd5b506129d7806100836000396000f3fe608060405234801561001057600080fd5b50600436106100b45760003560e01c80638f5ebf71116100715780638f5ebf71146101b5578063a638ac49146101d3578063cf24e31c14610206578063df6d23f114610222578063eab0a47914610254578063f330bd5114610272576100b4565b80632e9d5284146100b957806333ccecc8146100e95780633b26a65d146101055780633c51e6a31461013757806348106e341461016757806379e72c6d14610197575b600080fd5b6100d360048036038101906100ce9190611cc6565b610290565b6040516100e09190611d34565b60405180910390f35b61010360048036038101906100fe9190611e95565b611276565b005b61011f600480360381019061011a9190611f20565b611467565b60405161012e9392919061200d565b60405180910390f35b610151600480360381019061014c9190612088565b611618565b60405161015e91906120d7565b60405180910390f35b610181600480360381019061017c9190611f20565b611661565b60405161018e91906121b0565b60405180910390f35b61019f611704565b6040516101ac9190611d34565b60405180910390f35b6101bd611758565b6040516101ca91906120d7565b60405180910390f35b6101ed60048036038101906101e89190611f20565b61176e565b6040516101fd94939291906121d2565b60405180910390f35b610220600480360381019061021b919061224a565b6118db565b005b61023c60048036038101906102379190611f20565b611b91565b60405161024b939291906122e1565b60405180910390f35b61025c611c4c565b60405161026991906120d7565b60405180910390f35b61027a611c62565b60405161028791906120d7565b60405180910390f35b600080600360008563ffffffff1663ffffffff16815260200190815260200160002060020180546102c090612347565b80601f01602080910402602001604051908101604052809291908181526020018280546102ec90612347565b80156103395780601f1061030e57610100808354040283529160200191610339565b820191906000526020600020905b81548152906001019060200180831161031c57829003601f168201915b505050505090506000600360008563ffffffff1663ffffffff168152602001908152602001600020600201805461036f90612347565b80601f016020809104026020016040519081016040528092919081815260200182805461039b90612347565b80156103e85780601f106103bd576101008083540402835291602001916103e8565b820191906000526020600020905b8154815290600101906020018083116103cb57829003601f168201915b505050505090506040516020016103fe906123c4565b604051602081830303815290604052805190602001208260405160200161042591906123e4565b60405160208183030381529060405280519060200120148015610491575060405160200161045290612452565b604051602081830303815290604052805190602001208160405160200161047991906123e4565b60405160208183030381529060405280519060200120145b156106d457600360008563ffffffff1663ffffffff16815260200190815260200160002060010160009054906101000a900473ffffffffffffffffffffffffffffffffffffffff16600560008863ffffffff1663ffffffff16815260200190815260200160002060000160086101000a81548173ffffffffffffffffffffffffffffffffffffffff021916908373ffffffffffffffffffffffffffffffffffffffff16021790555083600560008863ffffffff1663ffffffff16815260200190815260200160002060000160046101000a81548163ffffffff021916908363ffffffff16021790555042600560008863ffffffff1663ffffffff16815260200190815260200160002060000160006101000a81548163ffffffff021916908363ffffffff160217905550600360008563ffffffff1663ffffffff16815260200190815260200160002060010160009054906101000a900473ffffffffffffffffffffffffffffffffffffffff16600160008863ffffffff1663ffffffff16815260200190815260200160002060020160006101000a81548173ffffffffffffffffffffffffffffffffffffffff021916908373ffffffffffffffffffffffffffffffffffffffff160217905550600660008763ffffffff1663ffffffff1681526020019081526020016000208490806001815401808255809150506001900390600052602060002090600891828204019190066004029091909190916101000a81548163ffffffff021916908363ffffffff16021790555060019250505061126f565b6040516020016106e390612452565b604051602081830303815290604052805190602001208260405160200161070a91906123e4565b60405160208183030381529060405280519060200120148015610776575060405160200161073790612452565b604051602081830303815290604052805190602001208160405160200161075e91906123e4565b60405160208183030381529060405280519060200120145b156109b957600360008563ffffffff1663ffffffff16815260200190815260200160002060010160009054906101000a900473ffffffffffffffffffffffffffffffffffffffff16600560008863ffffffff1663ffffffff16815260200190815260200160002060000160086101000a81548173ffffffffffffffffffffffffffffffffffffffff021916908373ffffffffffffffffffffffffffffffffffffffff16021790555083600560008863ffffffff1663ffffffff16815260200190815260200160002060000160046101000a81548163ffffffff021916908363ffffffff16021790555042600560008863ffffffff1663ffffffff16815260200190815260200160002060000160006101000a81548163ffffffff021916908363ffffffff160217905550600360008563ffffffff1663ffffffff16815260200190815260200160002060010160009054906101000a900473ffffffffffffffffffffffffffffffffffffffff16600160008863ffffffff1663ffffffff16815260200190815260200160002060020160006101000a81548173ffffffffffffffffffffffffffffffffffffffff021916908373ffffffffffffffffffffffffffffffffffffffff160217905550600660008763ffffffff1663ffffffff1681526020019081526020016000208490806001815401808255809150506001900390600052602060002090600891828204019190066004029091909190916101000a81548163ffffffff021916908363ffffffff16021790555060019250505061126f565b6040516020016109c890612452565b60405160208183030381529060405280519060200120826040516020016109ef91906123e4565b60405160208183030381529060405280519060200120148015610a5b5750604051602001610a1c906124be565b6040516020818303038152906040528051906020012081604051602001610a4391906123e4565b60405160208183030381529060405280519060200120145b15610c9e57600360008563ffffffff1663ffffffff16815260200190815260200160002060010160009054906101000a900473ffffffffffffffffffffffffffffffffffffffff16600560008863ffffffff1663ffffffff16815260200190815260200160002060000160086101000a81548173ffffffffffffffffffffffffffffffffffffffff021916908373ffffffffffffffffffffffffffffffffffffffff16021790555083600560008863ffffffff1663ffffffff16815260200190815260200160002060000160046101000a81548163ffffffff021916908363ffffffff16021790555042600560008863ffffffff1663ffffffff16815260200190815260200160002060000160006101000a81548163ffffffff021916908363ffffffff160217905550600360008563ffffffff1663ffffffff16815260200190815260200160002060010160009054906101000a900473ffffffffffffffffffffffffffffffffffffffff16600160008863ffffffff1663ffffffff16815260200190815260200160002060020160006101000a81548173ffffffffffffffffffffffffffffffffffffffff021916908373ffffffffffffffffffffffffffffffffffffffff160217905550600660008763ffffffff1663ffffffff1681526020019081526020016000208490806001815401808255809150506001900390600052602060002090600891828204019190066004029091909190916101000a81548163ffffffff021916908363ffffffff16021790555060019250505061126f565b604051602001610cad906124be565b6040516020818303038152906040528051906020012082604051602001610cd491906123e4565b60405160208183030381529060405280519060200120148015610d405750604051602001610d01906124be565b6040516020818303038152906040528051906020012081604051602001610d2891906123e4565b60405160208183030381529060405280519060200120145b15610f8357600360008563ffffffff1663ffffffff16815260200190815260200160002060010160009054906101000a900473ffffffffffffffffffffffffffffffffffffffff16600560008863ffffffff1663ffffffff16815260200190815260200160002060000160086101000a81548173ffffffffffffffffffffffffffffffffffffffff021916908373ffffffffffffffffffffffffffffffffffffffff16021790555083600560008863ffffffff1663ffffffff16815260200190815260200160002060000160046101000a81548163ffffffff021916908363ffffffff16021790555042600560008863ffffffff1663ffffffff16815260200190815260200160002060000160006101000a81548163ffffffff021916908363ffffffff160217905550600360008563ffffffff1663ffffffff16815260200190815260200160002060010160009054906101000a900473ffffffffffffffffffffffffffffffffffffffff16600160008863ffffffff1663ffffffff16815260200190815260200160002060020160006101000a81548173ffffffffffffffffffffffffffffffffffffffff021916908373ffffffffffffffffffffffffffffffffffffffff160217905550600660008763ffffffff1663ffffffff1681526020019081526020016000208490806001815401808255809150506001900390600052602060002090600891828204019190066004029091909190916101000a81548163ffffffff021916908363ffffffff16021790555060019250505061126f565b604051602001610f92906124be565b6040516020818303038152906040528051906020012082604051602001610fb991906123e4565b604051602081830303815290604052805190602001201480156110255750604051602001610fe69061252a565b604051602081830303815290604052805190602001208160405160200161100d91906123e4565b60405160208183030381529060405280519060200120145b1561126857600360008563ffffffff1663ffffffff16815260200190815260200160002060010160009054906101000a900473ffffffffffffffffffffffffffffffffffffffff16600560008863ffffffff1663ffffffff16815260200190815260200160002060000160086101000a81548173ffffffffffffffffffffffffffffffffffffffff021916908373ffffffffffffffffffffffffffffffffffffffff16021790555083600560008863ffffffff1663ffffffff16815260200190815260200160002060000160046101000a81548163ffffffff021916908363ffffffff16021790555042600560008863ffffffff1663ffffffff16815260200190815260200160002060000160006101000a81548163ffffffff021916908363ffffffff160217905550600360008563ffffffff1663ffffffff16815260200190815260200160002060010160009054906101000a900473ffffffffffffffffffffffffffffffffffffffff16600160008863ffffffff1663ffffffff16815260200190815260200160002060020160006101000a81548173ffffffffffffffffffffffffffffffffffffffff021916908373ffffffffffffffffffffffffffffffffffffffff160217905550600660008763ffffffff1663ffffffff1681526020019081526020016000208490806001815401808255809150506001900390600052602060002090600891828204019190066004029091909190916101000a81548163ffffffff021916908363ffffffff16021790555060019250505061126f565b6000925050505b9392505050565b60011515600460003373ffffffffffffffffffffffffffffffffffffffff1673ffffffffffffffffffffffffffffffffffffffff16815260200190815260200160002060009054906101000a900460ff16151514611309576040517f08c379a000000000000000000000000000000000000000000000000000000000815260040161130090612596565b60405180910390fd5b81600360008563ffffffff1663ffffffff16815260200190815260200160002060000190816113389190612762565b5080600360008563ffffffff1663ffffffff16815260200190815260200160002060020190816113689190612762565b5033600360008563ffffffff1663ffffffff16815260200190815260200160002060010160006101000a81548173ffffffffffffffffffffffffffffffffffffffff021916908373ffffffffffffffffffffffffffffffffffffffff16021790555060008081819054906101000a900463ffffffff16809291906113eb90612863565b91906101000a81548163ffffffff021916908363ffffffff160217905550506001600460003373ffffffffffffffffffffffffffffffffffffffff1673ffffffffffffffffffffffffffffffffffffffff16815260200190815260200160002060006101000a81548160ff021916908315150217905550505050565b6060806000600360008563ffffffff1663ffffffff168152602001908152602001600020600001600360008663ffffffff1663ffffffff168152602001908152602001600020600201600360008763ffffffff1663ffffffff16815260200190815260200160002060010160009054906101000a900473ffffffffffffffffffffffffffffffffffffffff168280546114ff90612347565b80601f016020809104026020016040519081016040528092919081815260200182805461152b90612347565b80156115785780601f1061154d57610100808354040283529160200191611578565b820191906000526020600020905b81548152906001019060200180831161155b57829003601f168201915b5050505050925081805461158b90612347565b80601f01602080910402602001604051908101604052809291908181526020018280546115b790612347565b80156116045780601f106115d957610100808354040283529160200191611604565b820191906000526020600020905b8154815290600101906020018083116115e757829003601f168201915b505050505091509250925092509193909250565b6006602052816000526040600020818154811061163457600080fd5b9060005260206000209060089182820401919006600402915091509054906101000a900463ffffffff1681565b6060600660008363ffffffff1663ffffffff1681526020019081526020016000208054806020026020016040519081016040528092919081815260200182805480156116f857602002820191906000526020600020906000905b82829054906101000a900463ffffffff1663ffffffff16815260200190600401906020826003010492830192600103820291508084116116bb5790505b50505050509050919050565b6000600460003373ffffffffffffffffffffffffffffffffffffffff1673ffffffffffffffffffffffffffffffffffffffff16815260200190815260200160002060009054906101000a900460ff16905090565b600060049054906101000a900463ffffffff1681565b60606000806000600160008663ffffffff1663ffffffff168152602001908152602001600020600101600160008763ffffffff1663ffffffff16815260200190815260200160002060020160009054906101000a900473ffffffffffffffffffffffffffffffffffffffff16600160008863ffffffff1663ffffffff16815260200190815260200160002060020160149054906101000a900463ffffffff16600160008963ffffffff1663ffffffff16815260200190815260200160002060020160189054906101000a900463ffffffff1683805461184c90612347565b80601f016020809104026020016040519081016040528092919081815260200182805461187890612347565b80156118c55780601f1061189a576101008083540402835291602001916118c5565b820191906000526020600020905b8154815290600101906020018083116118a857829003601f168201915b5050505050935093509350935093509193509193565b836040516020016118eb906123c4565b60405160208183030381529060405280519060200120600360008363ffffffff1663ffffffff1681526020019081526020016000206002016040516020016119339190612913565b6040516020818303038152906040528051906020012014611989576040517f08c379a000000000000000000000000000000000000000000000000000000000815260040161198090612981565b60405180910390fd5b85600160008863ffffffff1663ffffffff16815260200190815260200160002060000160006101000a81548163ffffffff021916908363ffffffff16021790555083600160008863ffffffff1663ffffffff16815260200190815260200160002060010190816119f99190612762565b5082600160008863ffffffff1663ffffffff16815260200190815260200160002060020160006101000a81548173ffffffffffffffffffffffffffffffffffffffff021916908373ffffffffffffffffffffffffffffffffffffffff16021790555081600160008863ffffffff1663ffffffff16815260200190815260200160002060020160146101000a81548163ffffffff021916908363ffffffff16021790555042600160008863ffffffff1663ffffffff16815260200190815260200160002060020160186101000a81548163ffffffff021916908363ffffffff1602179055506000600881819054906101000a900463ffffffff1680929190611aff90612863565b91906101000a81548163ffffffff021916908363ffffffff16021790555050600660008763ffffffff1663ffffffff1681526020019081526020016000208590806001815401808255809150506001900390600052602060002090600891828204019190066004029091909190916101000a81548163ffffffff021916908363ffffffff160217905550505050505050565b6000806000600560008563ffffffff1663ffffffff16815260200190815260200160002060000160049054906101000a900463ffffffff16600560008663ffffffff1663ffffffff16815260200190815260200160002060000160009054906101000a900463ffffffff16600560008763ffffffff1663ffffffff16815260200190815260200160002060000160089054906101000a900473ffffffffffffffffffffffffffffffffffffffff169250925092509193909250565b600060089054906101000a900463ffffffff1681565b60008054906101000a900463ffffffff1681565b6000604051905090565b600080fd5b600080fd5b600063ffffffff82169050919050565b611ca381611c8a565b8114611cae57600080fd5b50565b600081359050611cc081611c9a565b92915050565b600080600060608486031215611cdf57611cde611c80565b5b6000611ced86828701611cb1565b9350506020611cfe86828701611cb1565b9250506040611d0f86828701611cb1565b9150509250925092565b60008115159050919050565b611d2e81611d19565b82525050565b6000602082019050611d496000830184611d25565b92915050565b600080fd5b600080fd5b6000601f19601f8301169050919050565b7f4e487b7100000000000000000000000000000000000000000000000000000000600052604160045260246000fd5b611da282611d59565b810181811067ffffffffffffffff82111715611dc157611dc0611d6a565b5b80604052505050565b6000611dd4611c76565b9050611de08282611d99565b919050565b600067ffffffffffffffff821115611e0057611dff611d6a565b5b611e0982611d59565b9050602081019050919050565b82818337600083830152505050565b6000611e38611e3384611de5565b611dca565b905082815260208101848484011115611e5457611e53611d54565b5b611e5f848285611e16565b509392505050565b600082601f830112611e7c57611e7b611d4f565b5b8135611e8c848260208601611e25565b91505092915050565b600080600060608486031215611eae57611ead611c80565b5b6000611ebc86828701611cb1565b935050602084013567ffffffffffffffff811115611edd57611edc611c85565b5b611ee986828701611e67565b925050604084013567ffffffffffffffff811115611f0a57611f09611c85565b5b611f1686828701611e67565b9150509250925092565b600060208284031215611f3657611f35611c80565b5b6000611f4484828501611cb1565b91505092915050565b600081519050919050565b600082825260208201905092915050565b60005b83811015611f87578082015181840152602081019050611f6c565b60008484015250505050565b6000611f9e82611f4d565b611fa88185611f58565b9350611fb8818560208601611f69565b611fc181611d59565b840191505092915050565b600073ffffffffffffffffffffffffffffffffffffffff82169050919050565b6000611ff782611fcc565b9050919050565b61200781611fec565b82525050565b600060608201905081810360008301526120278186611f93565b9050818103602083015261203b8185611f93565b905061204a6040830184611ffe565b949350505050565b6000819050919050565b61206581612052565b811461207057600080fd5b50565b6000813590506120828161205c565b92915050565b6000806040838503121561209f5761209e611c80565b5b60006120ad85828601611cb1565b92505060206120be85828601612073565b9150509250929050565b6120d181611c8a565b82525050565b60006020820190506120ec60008301846120c8565b92915050565b600081519050919050565b600082825260208201905092915050565b6000819050602082019050919050565b61212781611c8a565b82525050565b6000612139838361211e565b60208301905092915050565b6000602082019050919050565b600061215d826120f2565b61216781856120fd565b93506121728361210e565b8060005b838110156121a357815161218a888261212d565b975061219583612145565b925050600181019050612176565b5085935050505092915050565b600060208201905081810360008301526121ca8184612152565b905092915050565b600060808201905081810360008301526121ec8187611f93565b90506121fb6020830186611ffe565b61220860408301856120c8565b61221560608301846120c8565b95945050505050565b61222781611fec565b811461223257600080fd5b50565b6000813590506122448161221e565b92915050565b600080600080600060a0868803121561226657612265611c80565b5b600061227488828901611cb1565b955050602061228588828901611cb1565b945050604086013567ffffffffffffffff8111156122a6576122a5611c85565b5b6122b288828901611e67565b93505060606122c388828901612235565b92505060806122d488828901611cb1565b9150509295509295909350565b60006060820190506122f660008301866120c8565b61230360208301856120c8565b6123106040830184611ffe565b949350505050565b7f4e487b7100000000000000000000000000000000000000000000000000000000600052602260045260246000fd5b6000600282049050600182168061235f57607f821691505b60208210810361237257612371612318565b5b50919050565b7f4d616e7566616374757265720000000000000000000000000000000000000000600082015250565b60006123ae600c83611f58565b91506123b982612378565b602082019050919050565b600060208201905081810360008301526123dd816123a1565b9050919050565b600060208201905081810360008301526123fe8184611f93565b905092915050565b7f537570706c696572000000000000000000000000000000000000000000000000600082015250565b600061243c600883611f58565b915061244782612406565b602082019050919050565b6000602082019050818103600083015261246b8161242f565b9050919050565b7f52657461696c6572000000000000000000000000000000000000000000000000600082015250565b60006124a8600883611f58565b91506124b382612472565b602082019050919050565b600060208201905081810360008301526124d78161249b565b9050919050565b7f436f6e73756d6572000000000000000000000000000000000000000000000000600082015250565b6000612514600883611f58565b915061251f826124de565b602082019050919050565b6000602082019050818103600083015261254381612507565b9050919050565b7f596f752061726520616c726561647920616e207061727469636970616e740000600082015250565b6000612580601e83611f58565b915061258b8261254a565b602082019050919050565b600060208201905081810360008301526125af81612573565b9050919050565b60008190508160005260206000209050919050565b60006020601f8301049050919050565b600082821b905092915050565b6000600883026126187fffffffffffffffffffffffffffffffffffffffffffffffffffffffffffffffff826125db565b61262286836125db565b95508019841693508086168417925050509392505050565b6000819050919050565b600061265f61265a61265584612052565b61263a565b612052565b9050919050565b6000819050919050565b61267983612644565b61268d61268582612666565b8484546125e8565b825550505050565b600090565b6126a2612695565b6126ad818484612670565b505050565b5b818110156126d1576126c660008261269a565b6001810190506126b3565b5050565b601f821115612716576126e7816125b6565b6126f0846125cb565b810160208510156126ff578190505b61271361270b856125cb565b8301826126b2565b50505b505050565b600082821c905092915050565b60006127396000198460080261271b565b1980831691505092915050565b60006127528383612728565b9150826002028217905092915050565b61276b82611f4d565b67ffffffffffffffff81111561278457612783611d6a565b5b61278e8254612347565b6127998282856126d5565b600060209050601f8311600181146127cc57600084156127ba578287015190505b6127c48582612746565b86555061282c565b601f1984166127da866125b6565b60005b82811015612802578489015182556001820191506020850194506020810190506127dd565b8683101561281f578489015161281b601f891682612728565b8355505b6001600288020188555050505b505050505050565b7f4e487b7100000000000000000000000000000000000000000000000000000000600052601160045260246000fd5b600061286e82611c8a565b915063ffffffff820361288457612883612834565b5b600182019050919050565b6000815461289c81612347565b6128a68186611f58565b945060018216600081146128c157600181146128d75761290a565b60ff19831686528115156020028601935061290a565b6128e0856125b6565b60005b83811015612902578154818901526001820191506020810190506128e3565b808801955050505b50505092915050565b6000602082019050818103600083015261292d818461288f565b905092915050565b7f4e6f7420746865204d616e756661637475726572000000000000000000000000600082015250565b600061296b601483611f58565b915061297682612935565b602082019050919050565b6000602082019050818103600083015261299a8161295e565b905091905056fea2646970667358221220b4684a3a435fe3de95357325a35fb173585ffee5cb753128d660f4864465fec064736f6c63430008110033",
  "immutableReferences": {},
  "source": "//SPDX-License-Identifier:MIT\r\npragma solidity ^0.8.17;\r\ncontract supplyChainoldd {\r\n\r\n    uint32 public participants_id = 0;\r\n    uint32 public owner_id = 0;\r\n    uint32 public product_id = 0;\r\n\r\n    struct Product {\r\n        uint32 productId;\r\n        string productName;\r\n        address productOwner;\r\n        uint32 productCost;\r\n        uint32 mfgTimestamp;\r\n    }\r\n\r\n    mapping(uint32 => Product)  products;\r\n    mapping(uint32 => Product[]) userProducts;\r\n\r\n    struct participant {\r\n        string participantName;\r\n        address participantAddress;\r\n        string participantType;\r\n    }\r\n\r\n    mapping(uint32 => participant)  participants;\r\n    \r\n    //to check participant or not\r\n    mapping(address => bool)  isParticipant;\r\n\r\n    struct ownerShip {\r\n        //uint32 productId;\r\n        uint32 txTimestamp;\r\n        uint32 ownerId;\r\n        address ownerAddress;\r\n    }\r\n\r\n    mapping(uint32 => ownerShip) ownerships;\r\n\r\n    mapping(uint32 => uint32[]) public productTracker;     //tracking using productId.. get all previous owners\r\n\r\n\r\n\r\n    modifier onlyManufacturer(uint32 pratId) {\r\n        //hash not required\r\n        require(keccak256(abi.encode(participants[pratId].participantType)) == keccak256(abi.encode(\"Manufacturer\")), \"Not the Manufacturer\");\r\n        _;\r\n    }\r\n\r\n    function IsParticipant() public view returns(bool){\r\n        return isParticipant[msg.sender];\r\n    }\r\n\r\n    function addParticipant(uint32 partId,string memory _participantName,string memory _participantType) public  {\r\n        //uint32 pId = participants_id++;\r\n        require(isParticipant[msg.sender] == true, 'You are already an participant');\r\n        \r\n        participants[partId].participantName = _participantName;\r\n        participants[partId].participantType = _participantType;\r\n        participants[partId].participantAddress = msg.sender;\r\n        \r\n        participants_id++;\r\n        //set as true\r\n        isParticipant[msg.sender] = true;\r\n    }\r\n\r\n    function getParticipant(uint32 _pId) public view returns(string memory,string memory,address){\r\n        return (participants[_pId].participantName,\r\n        participants[_pId].participantType,\r\n        participants[_pId].participantAddress);\r\n    }\r\n\r\n    function addProduct(uint32 prodId,uint32 partId,string memory _productName,address _productOwner,uint32 _productCost) public onlyManufacturer(partId) {\r\n        products[prodId].productId = prodId;\r\n        products[prodId].productName = _productName;\r\n        products[prodId].productOwner = _productOwner;\r\n        products[prodId].productCost = _productCost;\r\n        products[prodId].mfgTimestamp = uint32(block.timestamp);\r\n        product_id++;\r\n        productTracker[prodId].push(partId);\r\n    }\r\n\r\n    function getProduct(uint32 _productId) public view returns(string memory,address,uint32,uint32) {\r\n        return (products[_productId].productName,\r\n        products[_productId].productOwner,\r\n        products[_productId].productCost,\r\n        products[_productId].mfgTimestamp);\r\n    }\r\n   \r\n\r\n   function newOwner(uint32 _productId,uint32 user1Id,uint32 user2Id) public returns(bool) {\r\n        string memory st1 = participants[user1Id].participantType;\r\n        string memory st2 = participants[user2Id].participantType;\r\n             if(keccak256(abi.encode(st1)) == keccak256(abi.encode(\"Manufacturer\"))\r\n         && keccak256(abi.encode(st2)) == keccak256(abi.encode(\"Supplier\"))) {\r\n              \r\n              // changing owneships on product\r\n              ownerships[_productId].ownerAddress = participants[user2Id].participantAddress;\r\n              ownerships[_productId].ownerId = user2Id;\r\n              ownerships[_productId].txTimestamp = uint32(block.timestamp);\r\n              \r\n              //updating product owner\r\n              products[_productId].productOwner = participants[user2Id].participantAddress;\r\n              \r\n              //adding new user as owner for product\r\n              productTracker[_productId].push(user2Id);\r\n              \r\n              return  true;\r\n\r\n         }\r\n           \r\n\r\n         else if(keccak256(abi.encode(st1)) == keccak256(abi.encode(\"Supplier\"))\r\n         && keccak256(abi.encode(st2)) == keccak256(abi.encode(\"Supplier\"))) {\r\n             ownerships[_productId].ownerAddress = participants[user2Id].participantAddress;\r\n              ownerships[_productId].ownerId = user2Id;\r\n              ownerships[_productId].txTimestamp = uint32(block.timestamp);\r\n              products[_productId].productOwner = participants[user2Id].participantAddress;\r\n             // productTracker[_productId].push(user1Id);\r\n              productTracker[_productId].push(user2Id);\r\n\r\n              return  true;\r\n         }\r\n\r\n         else if(keccak256(abi.encode(st1)) == keccak256(abi.encode(\"Supplier\"))\r\n         && keccak256(abi.encode(st2)) == keccak256(abi.encode(\"Retailer\"))) {\r\n             ownerships[_productId].ownerAddress = participants[user2Id].participantAddress;\r\n              ownerships[_productId].ownerId = user2Id;\r\n              ownerships[_productId].txTimestamp = uint32(block.timestamp);\r\n              products[_productId].productOwner = participants[user2Id].participantAddress;\r\n             // productTracker[_productId].push(user1Id);\r\n              productTracker[_productId].push(user2Id);\r\n\r\n              return  true;\r\n         }\r\n\r\n         else if(keccak256(abi.encode(st1)) == keccak256(abi.encode(\"Retailer\"))\r\n         && keccak256(abi.encode(st2)) == keccak256(abi.encode(\"Retailer\"))) {\r\n             ownerships[_productId].ownerAddress = participants[user2Id].participantAddress;\r\n              ownerships[_productId].ownerId = user2Id;\r\n              ownerships[_productId].txTimestamp = uint32(block.timestamp);\r\n              products[_productId].productOwner = participants[user2Id].participantAddress;\r\n              //productTracker[_productId].push(user1Id);\r\n              productTracker[_productId].push(user2Id);\r\n\r\n              return  true;\r\n         }\r\n\r\n         else if(keccak256(abi.encode(st1)) == keccak256(abi.encode(\"Retailer\"))\r\n         && keccak256(abi.encode(st2)) == keccak256(abi.encode(\"Consumer\"))) {\r\n            ownerships[_productId].ownerAddress = participants[user2Id].participantAddress;\r\n              ownerships[_productId].ownerId = user2Id;\r\n              ownerships[_productId].txTimestamp = uint32(block.timestamp);\r\n              products[_productId].productOwner = participants[user2Id].participantAddress;\r\n              //productTracker[_productId].push(user1Id);\r\n              productTracker[_productId].push(user2Id);\r\n\r\n              return  true;\r\n         }\r\n         return false;\r\n   } \r\n    \r\n    function getTracking(uint32 _productId) external view returns(uint32[] memory) {\r\n        return productTracker[_productId];\r\n    }\r\n\r\n    function getOwnership(uint32 _productId) public view returns(uint32,uint32,address) {\r\n        return(\r\n        ownerships[_productId].ownerId,\r\n        ownerships[_productId].txTimestamp,\r\n        ownerships[_productId].ownerAddress);\r\n    }\r\n\r\n}\r\n\r\n//get user products\r\n//",
  "sourcePath": "C:\\Users\\HP\\Desktop\\SupplyChainDApp\\contracts\\SupplyChainnn.sol",
  "compiler": {
    "name": "solc",
    "version": "0.8.17+commit.8df45f5f.Emscripten.clang"
  },
  "schemaVersion": "3.4.16",
  "updatedAt": "2024-07-22T16:33:42.675Z",
  "devdoc": {
    "kind": "dev",
    "methods": {},
    "version": 1
  },
  "userdoc": {
    "kind": "user",
    "methods": {},
    "version": 1
  }
}