{
  "contractName": "supplyChain",
  "abi": [
    {
      "inputs": [
        {
          "internalType": "uint32",
          "name": "",
          "type": "uint32"
        }
      ],
      "name": "isProduct",
      "outputs": [
        {
          "internalType": "bool",
          "name": "",
          "type": "bool"
        }
      ],
      "stateMutability": "view",
      "type": "function",
      "constant": true
    },
    {
      "inputs": [],
      "name": "participants_id",
      "outputs": [
        {
          "internalType": "uint32",
          "name": "",
          "type": "uint32"
        }
      ],
      "stateMutability": "view",
      "type": "function",
      "constant": true
    },
    {
      "inputs": [],
      "name": "product_id",
      "outputs": [
        {
          "internalType": "uint32",
          "name": "",
          "type": "uint32"
        }
      ],
      "stateMutability": "view",
      "type": "function",
      "constant": true
    },
    {
      "inputs": [],
      "name": "IsParticipant",
      "outputs": [
        {
          "internalType": "bool",
          "name": "",
          "type": "bool"
        }
      ],
      "stateMutability": "view",
      "type": "function",
      "constant": true
    },
    {
      "inputs": [
        {
          "internalType": "uint32",
          "name": "partId",
          "type": "uint32"
        },
        {
          "internalType": "string",
          "name": "_participantName",
          "type": "string"
        },
        {
          "internalType": "string",
          "name": "_participantType",
          "type": "string"
        }
      ],
      "name": "addParticipant",
      "outputs": [],
      "stateMutability": "nonpayable",
      "type": "function"
    },
    {
      "inputs": [
        {
          "internalType": "uint32",
          "name": "_pId",
          "type": "uint32"
        }
      ],
      "name": "getParticipant",
      "outputs": [
        {
          "internalType": "string",
          "name": "",
          "type": "string"
        },
        {
          "internalType": "string",
          "name": "",
          "type": "string"
        },
        {
          "internalType": "address",
          "name": "",
          "type": "address"
        }
      ],
      "stateMutability": "view",
      "type": "function",
      "constant": true
    },
    {
      "inputs": [
        {
          "internalType": "uint32",
          "name": "prodId",
          "type": "uint32"
        },
        {
          "internalType": "uint32",
          "name": "partId",
          "type": "uint32"
        },
        {
          "internalType": "string",
          "name": "_productName",
          "type": "string"
        },
        {
          "internalType": "uint32",
          "name": "_productCost",
          "type": "uint32"
        }
      ],
      "name": "addProduct",
      "outputs": [],
      "stateMutability": "nonpayable",
      "type": "function"
    },
    {
      "inputs": [
        {
          "internalType": "uint32",
          "name": "_productId",
          "type": "uint32"
        }
      ],
      "name": "getProduct",
      "outputs": [
        {
          "internalType": "string",
          "name": "",
          "type": "string"
        },
        {
          "internalType": "address",
          "name": "",
          "type": "address"
        },
        {
          "internalType": "uint32",
          "name": "",
          "type": "uint32"
        },
        {
          "internalType": "uint32",
          "name": "",
          "type": "uint32"
        }
      ],
      "stateMutability": "view",
      "type": "function",
      "constant": true
    },
    {
      "inputs": [
        {
          "internalType": "uint32",
          "name": "_productId",
          "type": "uint32"
        },
        {
          "internalType": "uint32",
          "name": "user1Id",
          "type": "uint32"
        },
        {
          "internalType": "uint32",
          "name": "user2Id",
          "type": "uint32"
        }
      ],
      "name": "newOwner",
      "outputs": [
        {
          "internalType": "bool",
          "name": "",
          "type": "bool"
        }
      ],
      "stateMutability": "nonpayable",
      "type": "function"
    },
    {
      "inputs": [
        {
          "internalType": "uint32",
          "name": "_productId",
          "type": "uint32"
        }
      ],
      "name": "getTracking",
      "outputs": [
        {
          "internalType": "uint32[]",
          "name": "",
          "type": "uint32[]"
        }
      ],
      "stateMutability": "view",
      "type": "function",
      "constant": true
    },
    {
      "inputs": [
        {
          "internalType": "uint32",
          "name": "partId",
          "type": "uint32"
        }
      ],
      "name": "getParticipantsProducts",
      "outputs": [
        {
          "internalType": "uint32[]",
          "name": "",
          "type": "uint32[]"
        }
      ],
      "stateMutability": "view",
      "type": "function",
      "constant": true
    },
    {
      "inputs": [
        {
          "internalType": "uint32",
          "name": "_productId",
          "type": "uint32"
        }
      ],
      "name": "getOwnership",
      "outputs": [
        {
          "internalType": "uint32",
          "name": "",
          "type": "uint32"
        },
        {
          "internalType": "uint32",
          "name": "",
          "type": "uint32"
        },
        {
          "internalType": "address",
          "name": "",
          "type": "address"
        }
      ],
      "stateMutability": "view",
      "type": "function",
      "constant": true
    }
  ],
  "bytecode": "0x608060405260008060006101000a81548163ffffffff021916908363ffffffff16021790555060008060046101000a81548163ffffffff021916908363ffffffff160217905550600060015534801561005757600080fd5b50614680806100676000396000f3fe608060405234801561001057600080fd5b50600436106100b45760003560e01c806379e72c6d1161007157806379e72c6d146101b35780639f7e24e0146101d1578063a638ac4914610201578063df6d23f114610234578063eab0a47914610266578063f330bd5114610284576100b4565b806309a1c9cd146100b95780632e9d5284146100d557806333ccecc8146101055780633739e11b146101215780633b26a65d1461015157806348106e3414610183575b600080fd5b6100d360048036038101906100ce9190613949565b6102a2565b005b6100ef60048036038101906100ea91906139cc565b610807565b6040516100fc9190613a3a565b60405180910390f35b61011f600480360381019061011a9190613a55565b612f5a565b005b61013b60048036038101906101369190613ae0565b6131f6565b6040516101489190613a3a565b60405180910390f35b61016b60048036038101906101669190613ae0565b613216565b60405161017a93929190613bcd565b60405180910390f35b61019d60048036038101906101989190613ae0565b6133c7565b6040516101aa9190613cd0565b60405180910390f35b6101bb61346a565b6040516101c89190613a3a565b60405180910390f35b6101eb60048036038101906101e69190613ae0565b6134be565b6040516101f89190613cd0565b60405180910390f35b61021b60048036038101906102169190613ae0565b613561565b60405161022b9493929190613d01565b60405180910390f35b61024e60048036038101906102499190613ae0565b6136ce565b60405161025d93929190613d4d565b60405180910390f35b61026e613789565b60405161027b9190613d84565b60405180910390f35b61028c61379f565b6040516102999190613d84565b60405180910390f35b60001515600760008663ffffffff1663ffffffff16815260200190815260200160002060009054906101000a900460ff16151514610315576040517f08c379a000000000000000000000000000000000000000000000000000000000815260040161030c90613deb565b60405180910390fd5b600460008463ffffffff1663ffffffff16815260200190815260200160002060010160009054906101000a900473ffffffffffffffffffffffffffffffffffffffff1673ffffffffffffffffffffffffffffffffffffffff163373ffffffffffffffffffffffffffffffffffffffff16146103c5576040517f08c379a00000000000000000000000000000000000000000000000000000000081526004016103bc90613e57565b60405180910390fd5b83600260008663ffffffff1663ffffffff16815260200190815260200160002060000160006101000a81548163ffffffff021916908363ffffffff16021790555081600260008663ffffffff1663ffffffff1681526020019081526020016000206001019081610435919061408d565b50600460008463ffffffff1663ffffffff16815260200190815260200160002060010160009054906101000a900473ffffffffffffffffffffffffffffffffffffffff16600260008663ffffffff1663ffffffff16815260200190815260200160002060020160006101000a81548173ffffffffffffffffffffffffffffffffffffffff021916908373ffffffffffffffffffffffffffffffffffffffff16021790555080600260008663ffffffff1663ffffffff16815260200190815260200160002060020160146101000a81548163ffffffff021916908363ffffffff16021790555042600260008663ffffffff1663ffffffff16815260200190815260200160002060020160186101000a81548163ffffffff021916908363ffffffff160217905550600260008563ffffffff1663ffffffff16815260200190815260200160002060020160009054906101000a900473ffffffffffffffffffffffffffffffffffffffff16600860008663ffffffff1663ffffffff16815260200190815260200160002060000160086101000a81548173ffffffffffffffffffffffffffffffffffffffff021916908373ffffffffffffffffffffffffffffffffffffffff160217905550600260008563ffffffff1663ffffffff16815260200190815260200160002060020160189054906101000a900463ffffffff16600860008663ffffffff1663ffffffff16815260200190815260200160002060000160006101000a81548163ffffffff021916908363ffffffff16021790555082600860008663ffffffff1663ffffffff16815260200190815260200160002060000160046101000a81548163ffffffff021916908363ffffffff1602179055506001600760008663ffffffff1663ffffffff16815260200190815260200160002060006101000a81548160ff0219169083151502179055506000600481819054906101000a900463ffffffff168092919061070c9061418e565b91906101000a81548163ffffffff021916908363ffffffff16021790555050600360008463ffffffff1663ffffffff1681526020019081526020016000208490806001815401808255809150506001900390600052602060002090600891828204019190066004029091909190916101000a81548163ffffffff021916908363ffffffff160217905550600960008563ffffffff1663ffffffff1681526020019081526020016000208390806001815401808255809150506001900390600052602060002090600891828204019190066004029091909190916101000a81548163ffffffff021916908363ffffffff16021790555050505050565b6000600460008463ffffffff1663ffffffff16815260200190815260200160002060010160009054906101000a900473ffffffffffffffffffffffffffffffffffffffff1673ffffffffffffffffffffffffffffffffffffffff163373ffffffffffffffffffffffffffffffffffffffff16146108b9576040517f08c379a00000000000000000000000000000000000000000000000000000000081526004016108b090613e57565b60405180910390fd5b60011515600760008663ffffffff1663ffffffff16815260200190815260200160002060009054906101000a900460ff1615151461092c576040517f08c379a000000000000000000000000000000000000000000000000000000000815260040161092390614206565b60405180910390fd5b6000600460008563ffffffff1663ffffffff168152602001908152602001600020600201805461095b90613ea6565b80601f016020809104026020016040519081016040528092919081815260200182805461098790613ea6565b80156109d45780601f106109a9576101008083540402835291602001916109d4565b820191906000526020600020905b8154815290600101906020018083116109b757829003601f168201915b505050505090506000600460008563ffffffff1663ffffffff1681526020019081526020016000206002018054610a0a90613ea6565b80601f0160208091040260200160405190810160405280929190818152602001828054610a3690613ea6565b8015610a835780601f10610a5857610100808354040283529160200191610a83565b820191906000526020600020905b815481529060010190602001808311610a6657829003601f168201915b50505050509050604051602001610a9990614272565b6040516020818303038152906040528051906020012082604051602001610ac09190614292565b60405160208183030381529060405280519060200120148015610b2c5750604051602001610aed90614300565b6040516020818303038152906040528051906020012081604051602001610b149190614292565b60405160208183030381529060405280519060200120145b156111e457600460008563ffffffff1663ffffffff16815260200190815260200160002060010160009054906101000a900473ffffffffffffffffffffffffffffffffffffffff1673ffffffffffffffffffffffffffffffffffffffff16600a60008863ffffffff1663ffffffff16815260200190815260200160002060009054906101000a900473ffffffffffffffffffffffffffffffffffffffff1673ffffffffffffffffffffffffffffffffffffffff1603610c20576040517f08c379a0000000000000000000000000000000000000000000000000000000008152600401610c179061436c565b60405180910390fd5b600460008563ffffffff1663ffffffff16815260200190815260200160002060010160009054906101000a900473ffffffffffffffffffffffffffffffffffffffff16600860008863ffffffff1663ffffffff16815260200190815260200160002060000160086101000a81548173ffffffffffffffffffffffffffffffffffffffff021916908373ffffffffffffffffffffffffffffffffffffffff16021790555083600860008863ffffffff1663ffffffff16815260200190815260200160002060000160046101000a81548163ffffffff021916908363ffffffff16021790555042600860008863ffffffff1663ffffffff16815260200190815260200160002060000160006101000a81548163ffffffff021916908363ffffffff160217905550600460008563ffffffff1663ffffffff16815260200190815260200160002060010160009054906101000a900473ffffffffffffffffffffffffffffffffffffffff16600260008863ffffffff1663ffffffff16815260200190815260200160002060020160006101000a81548173ffffffffffffffffffffffffffffffffffffffff021916908373ffffffffffffffffffffffffffffffffffffffff160217905550600960008763ffffffff1663ffffffff1681526020019081526020016000208490806001815401808255809150506001900390600052602060002090600891828204019190066004029091909190916101000a81548163ffffffff021916908363ffffffff1602179055506000600360008763ffffffff1663ffffffff1681526020019081526020016000208054905090506000806001819055505b8160015410156110cc578763ffffffff16600360008963ffffffff1663ffffffff16815260200190815260200160002060015481548110610ec857610ec761438c565b5b90600052602060002090600891828204019190066004029054906101000a900463ffffffff1663ffffffff16036110af57600360008863ffffffff1663ffffffff16815260200190815260200160002060015481548110610f2c57610f2b61438c565b5b90600052602060002090600891828204019190066004029054906101000a900463ffffffff169050600060015490505b600183610f6991906143bb565b81101561104a57600360008963ffffffff1663ffffffff168152602001908152602001600020600182610f9c91906143ef565b81548110610fad57610fac61438c565b5b90600052602060002090600891828204019190066004029054906101000a900463ffffffff16600360008a63ffffffff1663ffffffff16815260200190815260200160002082815481106110045761100361438c565b5b90600052602060002090600891828204019190066004026101000a81548163ffffffff021916908363ffffffff160217905550808061104290614423565b915050610f5c565b50600360008863ffffffff1663ffffffff16815260200190815260200160002080548061107a5761107961446b565b5b60019003818190600052602060002090600891828204019190066004026101000a81549063ffffffff021916905590556110cc565b600160008154809291906110c290614423565b9190505550610e84565b600460008763ffffffff1663ffffffff16815260200190815260200160002060010160009054906101000a900473ffffffffffffffffffffffffffffffffffffffff16600a60008a63ffffffff1663ffffffff16815260200190815260200160002060006101000a81548173ffffffffffffffffffffffffffffffffffffffff021916908373ffffffffffffffffffffffffffffffffffffffff160217905550600360008763ffffffff1663ffffffff1681526020019081526020016000208190806001815401808255809150506001900390600052602060002090600891828204019190066004029091909190916101000a81548163ffffffff021916908363ffffffff1602179055506001945050505050612f53565b6040516020016111f390614300565b604051602081830303815290604052805190602001208260405160200161121a9190614292565b60405160208183030381529060405280519060200120148015611286575060405160200161124790614300565b604051602081830303815290604052805190602001208160405160200161126e9190614292565b60405160208183030381529060405280519060200120145b1561193e57600460008563ffffffff1663ffffffff16815260200190815260200160002060010160009054906101000a900473ffffffffffffffffffffffffffffffffffffffff1673ffffffffffffffffffffffffffffffffffffffff16600a60008863ffffffff1663ffffffff16815260200190815260200160002060009054906101000a900473ffffffffffffffffffffffffffffffffffffffff1673ffffffffffffffffffffffffffffffffffffffff160361137a576040517f08c379a00000000000000000000000000000000000000000000000000000000081526004016113719061436c565b60405180910390fd5b600460008563ffffffff1663ffffffff16815260200190815260200160002060010160009054906101000a900473ffffffffffffffffffffffffffffffffffffffff16600860008863ffffffff1663ffffffff16815260200190815260200160002060000160086101000a81548173ffffffffffffffffffffffffffffffffffffffff021916908373ffffffffffffffffffffffffffffffffffffffff16021790555083600860008863ffffffff1663ffffffff16815260200190815260200160002060000160046101000a81548163ffffffff021916908363ffffffff16021790555042600860008863ffffffff1663ffffffff16815260200190815260200160002060000160006101000a81548163ffffffff021916908363ffffffff160217905550600460008563ffffffff1663ffffffff16815260200190815260200160002060010160009054906101000a900473ffffffffffffffffffffffffffffffffffffffff16600260008863ffffffff1663ffffffff16815260200190815260200160002060020160006101000a81548173ffffffffffffffffffffffffffffffffffffffff021916908373ffffffffffffffffffffffffffffffffffffffff160217905550600960008763ffffffff1663ffffffff1681526020019081526020016000208490806001815401808255809150506001900390600052602060002090600891828204019190066004029091909190916101000a81548163ffffffff021916908363ffffffff1602179055506000600360008763ffffffff1663ffffffff1681526020019081526020016000208054905090506000806001819055505b816001541015611826578763ffffffff16600360008963ffffffff1663ffffffff168152602001908152602001600020600154815481106116225761162161438c565b5b90600052602060002090600891828204019190066004029054906101000a900463ffffffff1663ffffffff160361180957600360008863ffffffff1663ffffffff168152602001908152602001600020600154815481106116865761168561438c565b5b90600052602060002090600891828204019190066004029054906101000a900463ffffffff169050600060015490505b6001836116c391906143bb565b8110156117a457600360008963ffffffff1663ffffffff1681526020019081526020016000206001826116f691906143ef565b815481106117075761170661438c565b5b90600052602060002090600891828204019190066004029054906101000a900463ffffffff16600360008a63ffffffff1663ffffffff168152602001908152602001600020828154811061175e5761175d61438c565b5b90600052602060002090600891828204019190066004026101000a81548163ffffffff021916908363ffffffff160217905550808061179c90614423565b9150506116b6565b50600360008863ffffffff1663ffffffff1681526020019081526020016000208054806117d4576117d361446b565b5b60019003818190600052602060002090600891828204019190066004026101000a81549063ffffffff02191690559055611826565b6001600081548092919061181c90614423565b91905055506115de565b600460008763ffffffff1663ffffffff16815260200190815260200160002060010160009054906101000a900473ffffffffffffffffffffffffffffffffffffffff16600a60008a63ffffffff1663ffffffff16815260200190815260200160002060006101000a81548173ffffffffffffffffffffffffffffffffffffffff021916908373ffffffffffffffffffffffffffffffffffffffff160217905550600360008763ffffffff1663ffffffff1681526020019081526020016000208190806001815401808255809150506001900390600052602060002090600891828204019190066004029091909190916101000a81548163ffffffff021916908363ffffffff1602179055506001945050505050612f53565b60405160200161194d90614300565b60405160208183030381529060405280519060200120826040516020016119749190614292565b604051602081830303815290604052805190602001201480156119e057506040516020016119a1906144e6565b60405160208183030381529060405280519060200120816040516020016119c89190614292565b60405160208183030381529060405280519060200120145b1561209857600460008563ffffffff1663ffffffff16815260200190815260200160002060010160009054906101000a900473ffffffffffffffffffffffffffffffffffffffff1673ffffffffffffffffffffffffffffffffffffffff16600a60008863ffffffff1663ffffffff16815260200190815260200160002060009054906101000a900473ffffffffffffffffffffffffffffffffffffffff1673ffffffffffffffffffffffffffffffffffffffff1603611ad4576040517f08c379a0000000000000000000000000000000000000000000000000000000008152600401611acb9061436c565b60405180910390fd5b600460008563ffffffff1663ffffffff16815260200190815260200160002060010160009054906101000a900473ffffffffffffffffffffffffffffffffffffffff16600860008863ffffffff1663ffffffff16815260200190815260200160002060000160086101000a81548173ffffffffffffffffffffffffffffffffffffffff021916908373ffffffffffffffffffffffffffffffffffffffff16021790555083600860008863ffffffff1663ffffffff16815260200190815260200160002060000160046101000a81548163ffffffff021916908363ffffffff16021790555042600860008863ffffffff1663ffffffff16815260200190815260200160002060000160006101000a81548163ffffffff021916908363ffffffff160217905550600460008563ffffffff1663ffffffff16815260200190815260200160002060010160009054906101000a900473ffffffffffffffffffffffffffffffffffffffff16600260008863ffffffff1663ffffffff16815260200190815260200160002060020160006101000a81548173ffffffffffffffffffffffffffffffffffffffff021916908373ffffffffffffffffffffffffffffffffffffffff160217905550600960008763ffffffff1663ffffffff1681526020019081526020016000208490806001815401808255809150506001900390600052602060002090600891828204019190066004029091909190916101000a81548163ffffffff021916908363ffffffff1602179055506000600360008763ffffffff1663ffffffff1681526020019081526020016000208054905090506000806001819055505b816001541015611f80578763ffffffff16600360008963ffffffff1663ffffffff16815260200190815260200160002060015481548110611d7c57611d7b61438c565b5b90600052602060002090600891828204019190066004029054906101000a900463ffffffff1663ffffffff1603611f6357600360008863ffffffff1663ffffffff16815260200190815260200160002060015481548110611de057611ddf61438c565b5b90600052602060002090600891828204019190066004029054906101000a900463ffffffff169050600060015490505b600183611e1d91906143bb565b811015611efe57600360008963ffffffff1663ffffffff168152602001908152602001600020600182611e5091906143ef565b81548110611e6157611e6061438c565b5b90600052602060002090600891828204019190066004029054906101000a900463ffffffff16600360008a63ffffffff1663ffffffff1681526020019081526020016000208281548110611eb857611eb761438c565b5b90600052602060002090600891828204019190066004026101000a81548163ffffffff021916908363ffffffff1602179055508080611ef690614423565b915050611e10565b50600360008863ffffffff1663ffffffff168152602001908152602001600020805480611f2e57611f2d61446b565b5b60019003818190600052602060002090600891828204019190066004026101000a81549063ffffffff02191690559055611f80565b60016000815480929190611f7690614423565b9190505550611d38565b600460008763ffffffff1663ffffffff16815260200190815260200160002060010160009054906101000a900473ffffffffffffffffffffffffffffffffffffffff16600a60008a63ffffffff1663ffffffff16815260200190815260200160002060006101000a81548173ffffffffffffffffffffffffffffffffffffffff021916908373ffffffffffffffffffffffffffffffffffffffff160217905550600360008763ffffffff1663ffffffff1681526020019081526020016000208190806001815401808255809150506001900390600052602060002090600891828204019190066004029091909190916101000a81548163ffffffff021916908363ffffffff1602179055506001945050505050612f53565b6040516020016120a7906144e6565b60405160208183030381529060405280519060200120826040516020016120ce9190614292565b6040516020818303038152906040528051906020012014801561213a57506040516020016120fb906144e6565b60405160208183030381529060405280519060200120816040516020016121229190614292565b60405160208183030381529060405280519060200120145b156127f257600460008563ffffffff1663ffffffff16815260200190815260200160002060010160009054906101000a900473ffffffffffffffffffffffffffffffffffffffff1673ffffffffffffffffffffffffffffffffffffffff16600a60008863ffffffff1663ffffffff16815260200190815260200160002060009054906101000a900473ffffffffffffffffffffffffffffffffffffffff1673ffffffffffffffffffffffffffffffffffffffff160361222e576040517f08c379a00000000000000000000000000000000000000000000000000000000081526004016122259061436c565b60405180910390fd5b600460008563ffffffff1663ffffffff16815260200190815260200160002060010160009054906101000a900473ffffffffffffffffffffffffffffffffffffffff16600860008863ffffffff1663ffffffff16815260200190815260200160002060000160086101000a81548173ffffffffffffffffffffffffffffffffffffffff021916908373ffffffffffffffffffffffffffffffffffffffff16021790555083600860008863ffffffff1663ffffffff16815260200190815260200160002060000160046101000a81548163ffffffff021916908363ffffffff16021790555042600860008863ffffffff1663ffffffff16815260200190815260200160002060000160006101000a81548163ffffffff021916908363ffffffff160217905550600460008563ffffffff1663ffffffff16815260200190815260200160002060010160009054906101000a900473ffffffffffffffffffffffffffffffffffffffff16600260008863ffffffff1663ffffffff16815260200190815260200160002060020160006101000a81548173ffffffffffffffffffffffffffffffffffffffff021916908373ffffffffffffffffffffffffffffffffffffffff160217905550600960008763ffffffff1663ffffffff1681526020019081526020016000208490806001815401808255809150506001900390600052602060002090600891828204019190066004029091909190916101000a81548163ffffffff021916908363ffffffff1602179055506000600360008763ffffffff1663ffffffff1681526020019081526020016000208054905090506000806001819055505b8160015410156126da578763ffffffff16600360008963ffffffff1663ffffffff168152602001908152602001600020600154815481106124d6576124d561438c565b5b90600052602060002090600891828204019190066004029054906101000a900463ffffffff1663ffffffff16036126bd57600360008863ffffffff1663ffffffff1681526020019081526020016000206001548154811061253a5761253961438c565b5b90600052602060002090600891828204019190066004029054906101000a900463ffffffff169050600060015490505b60018361257791906143bb565b81101561265857600360008963ffffffff1663ffffffff1681526020019081526020016000206001826125aa91906143ef565b815481106125bb576125ba61438c565b5b90600052602060002090600891828204019190066004029054906101000a900463ffffffff16600360008a63ffffffff1663ffffffff16815260200190815260200160002082815481106126125761261161438c565b5b90600052602060002090600891828204019190066004026101000a81548163ffffffff021916908363ffffffff160217905550808061265090614423565b91505061256a565b50600360008863ffffffff1663ffffffff1681526020019081526020016000208054806126885761268761446b565b5b60019003818190600052602060002090600891828204019190066004026101000a81549063ffffffff021916905590556126da565b600160008154809291906126d090614423565b9190505550612492565b600460008763ffffffff1663ffffffff16815260200190815260200160002060010160009054906101000a900473ffffffffffffffffffffffffffffffffffffffff16600a60008a63ffffffff1663ffffffff16815260200190815260200160002060006101000a81548173ffffffffffffffffffffffffffffffffffffffff021916908373ffffffffffffffffffffffffffffffffffffffff160217905550600360008763ffffffff1663ffffffff1681526020019081526020016000208190806001815401808255809150506001900390600052602060002090600891828204019190066004029091909190916101000a81548163ffffffff021916908363ffffffff1602179055506001945050505050612f53565b604051602001612801906144e6565b60405160208183030381529060405280519060200120826040516020016128289190614292565b60405160208183030381529060405280519060200120148015612894575060405160200161285590614552565b604051602081830303815290604052805190602001208160405160200161287c9190614292565b60405160208183030381529060405280519060200120145b15612f4c57600460008563ffffffff1663ffffffff16815260200190815260200160002060010160009054906101000a900473ffffffffffffffffffffffffffffffffffffffff1673ffffffffffffffffffffffffffffffffffffffff16600a60008863ffffffff1663ffffffff16815260200190815260200160002060009054906101000a900473ffffffffffffffffffffffffffffffffffffffff1673ffffffffffffffffffffffffffffffffffffffff1603612988576040517f08c379a000000000000000000000000000000000000000000000000000000000815260040161297f9061436c565b60405180910390fd5b600460008563ffffffff1663ffffffff16815260200190815260200160002060010160009054906101000a900473ffffffffffffffffffffffffffffffffffffffff16600860008863ffffffff1663ffffffff16815260200190815260200160002060000160086101000a81548173ffffffffffffffffffffffffffffffffffffffff021916908373ffffffffffffffffffffffffffffffffffffffff16021790555083600860008863ffffffff1663ffffffff16815260200190815260200160002060000160046101000a81548163ffffffff021916908363ffffffff16021790555042600860008863ffffffff1663ffffffff16815260200190815260200160002060000160006101000a81548163ffffffff021916908363ffffffff160217905550600460008563ffffffff1663ffffffff16815260200190815260200160002060010160009054906101000a900473ffffffffffffffffffffffffffffffffffffffff16600260008863ffffffff1663ffffffff16815260200190815260200160002060020160006101000a81548173ffffffffffffffffffffffffffffffffffffffff021916908373ffffffffffffffffffffffffffffffffffffffff160217905550600960008763ffffffff1663ffffffff1681526020019081526020016000208490806001815401808255809150506001900390600052602060002090600891828204019190066004029091909190916101000a81548163ffffffff021916908363ffffffff1602179055506000600360008763ffffffff1663ffffffff1681526020019081526020016000208054905090506000806001819055505b816001541015612e34578763ffffffff16600360008963ffffffff1663ffffffff16815260200190815260200160002060015481548110612c3057612c2f61438c565b5b90600052602060002090600891828204019190066004029054906101000a900463ffffffff1663ffffffff1603612e1757600360008863ffffffff1663ffffffff16815260200190815260200160002060015481548110612c9457612c9361438c565b5b90600052602060002090600891828204019190066004029054906101000a900463ffffffff169050600060015490505b600183612cd191906143bb565b811015612db257600360008963ffffffff1663ffffffff168152602001908152602001600020600182612d0491906143ef565b81548110612d1557612d1461438c565b5b90600052602060002090600891828204019190066004029054906101000a900463ffffffff16600360008a63ffffffff1663ffffffff1681526020019081526020016000208281548110612d6c57612d6b61438c565b5b90600052602060002090600891828204019190066004026101000a81548163ffffffff021916908363ffffffff1602179055508080612daa90614423565b915050612cc4565b50600360008863ffffffff1663ffffffff168152602001908152602001600020805480612de257612de161446b565b5b60019003818190600052602060002090600891828204019190066004026101000a81549063ffffffff02191690559055612e34565b60016000815480929190612e2a90614423565b9190505550612bec565b600460008763ffffffff1663ffffffff16815260200190815260200160002060010160009054906101000a900473ffffffffffffffffffffffffffffffffffffffff16600a60008a63ffffffff1663ffffffff16815260200190815260200160002060006101000a81548173ffffffffffffffffffffffffffffffffffffffff021916908373ffffffffffffffffffffffffffffffffffffffff160217905550600360008763ffffffff1663ffffffff1681526020019081526020016000208190806001815401808255809150506001900390600052602060002090600891828204019190066004029091909190916101000a81548163ffffffff021916908363ffffffff1602179055506001945050505050612f53565b6000925050505b9392505050565b60001515600660008563ffffffff1663ffffffff16815260200190815260200160002060009054906101000a900460ff16151514612fcd576040517f08c379a0000000000000000000000000000000000000000000000000000000008152600401612fc4906145be565b60405180910390fd5b60001515600560003373ffffffffffffffffffffffffffffffffffffffff1673ffffffffffffffffffffffffffffffffffffffff16815260200190815260200160002060009054906101000a900460ff16151514613060576040517f08c379a00000000000000000000000000000000000000000000000000000000081526004016130579061462a565b60405180910390fd5b81600460008563ffffffff1663ffffffff168152602001908152602001600020600001908161308f919061408d565b5080600460008563ffffffff1663ffffffff16815260200190815260200160002060020190816130bf919061408d565b5033600460008563ffffffff1663ffffffff16815260200190815260200160002060010160006101000a81548173ffffffffffffffffffffffffffffffffffffffff021916908373ffffffffffffffffffffffffffffffffffffffff16021790555060008081819054906101000a900463ffffffff16809291906131429061418e565b91906101000a81548163ffffffff021916908363ffffffff160217905550506001600660008563ffffffff1663ffffffff16815260200190815260200160002060006101000a81548160ff0219169083151502179055506001600560003373ffffffffffffffffffffffffffffffffffffffff1673ffffffffffffffffffffffffffffffffffffffff16815260200190815260200160002060006101000a81548160ff021916908315150217905550505050565b60076020528060005260406000206000915054906101000a900460ff1681565b6060806000600460008563ffffffff1663ffffffff168152602001908152602001600020600001600460008663ffffffff1663ffffffff168152602001908152602001600020600201600460008763ffffffff1663ffffffff16815260200190815260200160002060010160009054906101000a900473ffffffffffffffffffffffffffffffffffffffff168280546132ae90613ea6565b80601f01602080910402602001604051908101604052809291908181526020018280546132da90613ea6565b80156133275780601f106132fc57610100808354040283529160200191613327565b820191906000526020600020905b81548152906001019060200180831161330a57829003601f168201915b5050505050925081805461333a90613ea6565b80601f016020809104026020016040519081016040528092919081815260200182805461336690613ea6565b80156133b35780601f10613388576101008083540402835291602001916133b3565b820191906000526020600020905b81548152906001019060200180831161339657829003601f168201915b505050505091509250925092509193909250565b6060600960008363ffffffff1663ffffffff16815260200190815260200160002080548060200260200160405190810160405280929190818152602001828054801561345e57602002820191906000526020600020906000905b82829054906101000a900463ffffffff1663ffffffff16815260200190600401906020826003010492830192600103820291508084116134215790505b50505050509050919050565b6000600560003373ffffffffffffffffffffffffffffffffffffffff1673ffffffffffffffffffffffffffffffffffffffff16815260200190815260200160002060009054906101000a900460ff16905090565b6060600360008363ffffffff1663ffffffff16815260200190815260200160002080548060200260200160405190810160405280929190818152602001828054801561355557602002820191906000526020600020906000905b82829054906101000a900463ffffffff1663ffffffff16815260200190600401906020826003010492830192600103820291508084116135185790505b50505050509050919050565b60606000806000600260008663ffffffff1663ffffffff168152602001908152602001600020600101600260008763ffffffff1663ffffffff16815260200190815260200160002060020160009054906101000a900473ffffffffffffffffffffffffffffffffffffffff16600260008863ffffffff1663ffffffff16815260200190815260200160002060020160149054906101000a900463ffffffff16600260008963ffffffff1663ffffffff16815260200190815260200160002060020160189054906101000a900463ffffffff1683805461363f90613ea6565b80601f016020809104026020016040519081016040528092919081815260200182805461366b90613ea6565b80156136b85780601f1061368d576101008083540402835291602001916136b8565b820191906000526020600020905b81548152906001019060200180831161369b57829003601f168201915b5050505050935093509350935093509193509193565b6000806000600860008563ffffffff1663ffffffff16815260200190815260200160002060000160049054906101000a900463ffffffff16600860008663ffffffff1663ffffffff16815260200190815260200160002060000160009054906101000a900463ffffffff16600860008763ffffffff1663ffffffff16815260200190815260200160002060000160089054906101000a900473ffffffffffffffffffffffffffffffffffffffff169250925092509193909250565b600060049054906101000a900463ffffffff1681565b60008054906101000a900463ffffffff1681565b6000604051905090565b600080fd5b600080fd5b600063ffffffff82169050919050565b6137e0816137c7565b81146137eb57600080fd5b50565b6000813590506137fd816137d7565b92915050565b600080fd5b600080fd5b6000601f19601f8301169050919050565b7f4e487b7100000000000000000000000000000000000000000000000000000000600052604160045260246000fd5b6138568261380d565b810181811067ffffffffffffffff821117156138755761387461381e565b5b80604052505050565b60006138886137b3565b9050613894828261384d565b919050565b600067ffffffffffffffff8211156138b4576138b361381e565b5b6138bd8261380d565b9050602081019050919050565b82818337600083830152505050565b60006138ec6138e784613899565b61387e565b90508281526020810184848401111561390857613907613808565b5b6139138482856138ca565b509392505050565b600082601f8301126139305761392f613803565b5b81356139408482602086016138d9565b91505092915050565b60008060008060808587031215613963576139626137bd565b5b6000613971878288016137ee565b9450506020613982878288016137ee565b935050604085013567ffffffffffffffff8111156139a3576139a26137c2565b5b6139af8782880161391b565b92505060606139c0878288016137ee565b91505092959194509250565b6000806000606084860312156139e5576139e46137bd565b5b60006139f3868287016137ee565b9350506020613a04868287016137ee565b9250506040613a15868287016137ee565b9150509250925092565b60008115159050919050565b613a3481613a1f565b82525050565b6000602082019050613a4f6000830184613a2b565b92915050565b600080600060608486031215613a6e57613a6d6137bd565b5b6000613a7c868287016137ee565b935050602084013567ffffffffffffffff811115613a9d57613a9c6137c2565b5b613aa98682870161391b565b925050604084013567ffffffffffffffff811115613aca57613ac96137c2565b5b613ad68682870161391b565b9150509250925092565b600060208284031215613af657613af56137bd565b5b6000613b04848285016137ee565b91505092915050565b600081519050919050565b600082825260208201905092915050565b60005b83811015613b47578082015181840152602081019050613b2c565b60008484015250505050565b6000613b5e82613b0d565b613b688185613b18565b9350613b78818560208601613b29565b613b818161380d565b840191505092915050565b600073ffffffffffffffffffffffffffffffffffffffff82169050919050565b6000613bb782613b8c565b9050919050565b613bc781613bac565b82525050565b60006060820190508181036000830152613be78186613b53565b90508181036020830152613bfb8185613b53565b9050613c0a6040830184613bbe565b949350505050565b600081519050919050565b600082825260208201905092915050565b6000819050602082019050919050565b613c47816137c7565b82525050565b6000613c598383613c3e565b60208301905092915050565b6000602082019050919050565b6000613c7d82613c12565b613c878185613c1d565b9350613c9283613c2e565b8060005b83811015613cc3578151613caa8882613c4d565b9750613cb583613c65565b925050600181019050613c96565b5085935050505092915050565b60006020820190508181036000830152613cea8184613c72565b905092915050565b613cfb816137c7565b82525050565b60006080820190508181036000830152613d1b8187613b53565b9050613d2a6020830186613bbe565b613d376040830185613cf2565b613d446060830184613cf2565b95945050505050565b6000606082019050613d626000830186613cf2565b613d6f6020830185613cf2565b613d7c6040830184613bbe565b949350505050565b6000602082019050613d996000830184613cf2565b92915050565b7f50726f64756374496420616c7265616479205265676973746572656400000000600082015250565b6000613dd5601c83613b18565b9150613de082613d9f565b602082019050919050565b60006020820190508181036000830152613e0481613dc8565b9050919050565b7f4e6f74207468652056616c696420416464726573730000000000000000000000600082015250565b6000613e41601583613b18565b9150613e4c82613e0b565b602082019050919050565b60006020820190508181036000830152613e7081613e34565b9050919050565b7f4e487b7100000000000000000000000000000000000000000000000000000000600052602260045260246000fd5b60006002820490506001821680613ebe57607f821691505b602082108103613ed157613ed0613e77565b5b50919050565b60008190508160005260206000209050919050565b60006020601f8301049050919050565b600082821b905092915050565b600060088302613f397fffffffffffffffffffffffffffffffffffffffffffffffffffffffffffffffff82613efc565b613f438683613efc565b95508019841693508086168417925050509392505050565b6000819050919050565b6000819050919050565b6000613f8a613f85613f8084613f5b565b613f65565b613f5b565b9050919050565b6000819050919050565b613fa483613f6f565b613fb8613fb082613f91565b848454613f09565b825550505050565b600090565b613fcd613fc0565b613fd8818484613f9b565b505050565b5b81811015613ffc57613ff1600082613fc5565b600181019050613fde565b5050565b601f8211156140415761401281613ed7565b61401b84613eec565b8101602085101561402a578190505b61403e61403685613eec565b830182613fdd565b50505b505050565b600082821c905092915050565b600061406460001984600802614046565b1980831691505092915050565b600061407d8383614053565b9150826002028217905092915050565b61409682613b0d565b67ffffffffffffffff8111156140af576140ae61381e565b5b6140b98254613ea6565b6140c4828285614000565b600060209050601f8311600181146140f757600084156140e5578287015190505b6140ef8582614071565b865550614157565b601f19841661410586613ed7565b60005b8281101561412d57848901518255600182019150602085019450602081019050614108565b8683101561414a5784890151614146601f891682614053565b8355505b6001600288020188555050505b505050505050565b7f4e487b7100000000000000000000000000000000000000000000000000000000600052601160045260246000fd5b6000614199826137c7565b915063ffffffff82036141af576141ae61415f565b5b600182019050919050565b7f50726f64756374496420686173206e6f74205265676973746572656400000000600082015250565b60006141f0601c83613b18565b91506141fb826141ba565b602082019050919050565b6000602082019050818103600083015261421f816141e3565b9050919050565b7f4d616e7566616374757265720000000000000000000000000000000000000000600082015250565b600061425c600c83613b18565b915061426782614226565b602082019050919050565b6000602082019050818103600083015261428b8161424f565b9050919050565b600060208201905081810360008301526142ac8184613b53565b905092915050565b7f537570706c696572000000000000000000000000000000000000000000000000600082015250565b60006142ea600883613b18565b91506142f5826142b4565b602082019050919050565b60006020820190508181036000830152614319816142dd565b9050919050565b7f4f776e65725368697020686173206368616e6765640000000000000000000000600082015250565b6000614356601583613b18565b915061436182614320565b602082019050919050565b6000602082019050818103600083015261438581614349565b9050919050565b7f4e487b7100000000000000000000000000000000000000000000000000000000600052603260045260246000fd5b60006143c682613f5b565b91506143d183613f5b565b92508282039050818111156143e9576143e861415f565b5b92915050565b60006143fa82613f5b565b915061440583613f5b565b925082820190508082111561441d5761441c61415f565b5b92915050565b600061442e82613f5b565b91507fffffffffffffffffffffffffffffffffffffffffffffffffffffffffffffffff82036144605761445f61415f565b5b600182019050919050565b7f4e487b7100000000000000000000000000000000000000000000000000000000600052603160045260246000fd5b7f52657461696c6572000000000000000000000000000000000000000000000000600082015250565b60006144d0600883613b18565b91506144db8261449a565b602082019050919050565b600060208201905081810360008301526144ff816144c3565b9050919050565b7f436f6e73756d6572000000000000000000000000000000000000000000000000600082015250565b600061453c600883613b18565b915061454782614506565b602082019050919050565b6000602082019050818103600083015261456b8161452f565b9050919050565b7f49642068617320616c7265616479205265676973746572656400000000000000600082015250565b60006145a8601983613b18565b91506145b382614572565b602082019050919050565b600060208201905081810360008301526145d78161459b565b9050919050565b7f596f752061726520616c726561647920616e207061727469636970616e740000600082015250565b6000614614601e83613b18565b915061461f826145de565b602082019050919050565b6000602082019050818103600083015261464381614607565b905091905056fea264697066735822122098a249b454100da5548b91af52c379abe00ec4a41fbe4068bc56f3d38b77b8a064736f6c63430008110033",
  "immutableReferences": {},
  "source": "//SPDX-License-Identifier:MIT\r\npragma solidity ^0.8.17;\r\ncontract supplyChain {\r\n\r\n    uint32 public participants_id = 0;\r\n    //uint32 public owner_id = 0;\r\n    uint32 public product_id = 0;\r\n    uint i = 0;\r\n\r\n    struct Product {\r\n        uint32 productId;\r\n        string productName;\r\n        address productOwner;\r\n        uint32 productCost;\r\n        uint32 mfgTimestamp;\r\n    }\r\n\r\n    mapping(uint32 => Product)  products;\r\n    mapping(uint32 => uint32[]) userProducts;   //partId --> productId;;\r\n\r\n    struct participant {\r\n        string participantName;\r\n        address participantAddress;\r\n        string participantType;\r\n    }\r\n\r\n    mapping(uint32 => participant)  participants;\r\n    \r\n    //to check participant or not\r\n     mapping(address => bool)  isParticipant;\r\n     mapping(uint32 => bool)  idCheck;           // check whether ID is Unique or not.\r\n     mapping(uint32 => bool) public isProduct;   // check whether product is unique or not..\r\n\r\n\r\n    struct ownerShip {\r\n        uint32 txTimestamp;\r\n        uint32 ownerId;\r\n        address ownerAddress;\r\n    }\r\n\r\n    mapping(uint32 => ownerShip) ownerships;\r\n\r\n    mapping(uint32 => uint32[]) productTracker;     //tracking using productId.. get all previous owners\r\n    mapping(uint32 => address) updateOwner;  // by productId\r\n\r\n\r\n\r\n    modifier onlyManufacturer(uint32 pratId) {\r\n        //hash not required\r\n        require(keccak256(abi.encode(participants[pratId].participantType)) == keccak256(abi.encode(\"Manufacturer\")), \"Not the Manufacturer\");\r\n        _;\r\n    }\r\n\r\n    function IsParticipant() public view returns(bool){\r\n        return isParticipant[msg.sender];\r\n    }\r\n\r\n    function addParticipant(uint32 partId,string memory _participantName,string memory _participantType) public  {\r\n        require(idCheck[partId] == false,\"Id has already Registered\");\r\n        require(isParticipant[msg.sender] == false, 'You are already an participant');\r\n        \r\n        participants[partId].participantName = _participantName;\r\n        participants[partId].participantType = _participantType;\r\n        participants[partId].participantAddress = msg.sender;\r\n        \r\n        participants_id++;\r\n        idCheck[partId] = true;\r\n        isParticipant[msg.sender] = true;\r\n    }\r\n\r\n    function getParticipant(uint32 _pId) public view returns(string memory,string memory,address){\r\n        return (participants[_pId].participantName,\r\n        participants[_pId].participantType,\r\n        participants[_pId].participantAddress);\r\n    }\r\n\r\n    function addProduct(uint32 prodId,uint32 partId,string memory _productName,uint32 _productCost) public  {\r\n        require(isProduct[prodId] == false,\"ProductId already Registered\");\r\n        //require(participants[partId].participantAddress == _productOwner,\"Not the participant Address\");  // for taking the correct \r\n          // owner address\r\n          require(msg.sender == participants[partId].participantAddress,\"Not the Valid Address\");\r\n        products[prodId].productId = prodId;\r\n        products[prodId].productName = _productName;\r\n        products[prodId].productOwner = participants[partId].participantAddress;\r\n        products[prodId].productCost = _productCost;\r\n        products[prodId].mfgTimestamp = uint32(block.timestamp);  \r\n\r\n        ownerships[prodId].ownerAddress =  products[prodId].productOwner;\r\n        ownerships[prodId].txTimestamp =  products[prodId].mfgTimestamp;\r\n        ownerships[prodId].ownerId =  partId;\r\n\r\n\r\n\r\n        isProduct[prodId] = true;\r\n        product_id++;\r\n        userProducts[partId].push(prodId);\r\n        productTracker[prodId].push(partId);\r\n    }\r\n\r\n    function getProduct(uint32 _productId) public view returns(string memory,address,uint32,uint32) {\r\n        return (products[_productId].productName,\r\n        products[_productId].productOwner,\r\n        products[_productId].productCost,\r\n        products[_productId].mfgTimestamp);\r\n    }\r\n   \r\n\r\n   function newOwner(uint32 _productId,uint32 user1Id,uint32 user2Id) public returns(bool) {\r\n         //require(ownerships[_productId].ownerAddress == products[_productId].productOwner,\"The product has reached to Consumer\" );\r\n         require(msg.sender == participants[user1Id].participantAddress,\"Not the Valid Address\");\r\n         require(isProduct[_productId] == true,\"ProductId has not Registered\");\r\n        string memory st1 = participants[user1Id].participantType;\r\n        string memory st2 = participants[user2Id].participantType;\r\n             if(keccak256(abi.encode(st1)) == keccak256(abi.encode(\"Manufacturer\"))\r\n         && keccak256(abi.encode(st2)) == keccak256(abi.encode(\"Supplier\"))) {\r\n              \r\n              require(updateOwner[_productId] != participants[user2Id].participantAddress,\"OwnerShip has changed\");\r\n              ownerships[_productId].ownerAddress = participants[user2Id].participantAddress;\r\n              ownerships[_productId].ownerId = user2Id;\r\n              ownerships[_productId].txTimestamp = uint32(block.timestamp);  // now\r\n              \r\n              //updating product owner\r\n              products[_productId].productOwner = participants[user2Id].participantAddress;\r\n              \r\n              //adding new user as owner for product\r\n              productTracker[_productId].push(user2Id);\r\n               uint256 length = userProducts[user1Id].length;\r\n               uint32 transferredProductId;\r\n\r\n           for (i = 0; i < length; i++) {\r\n             if (userProducts[user1Id][i] == _productId) {\r\n            transferredProductId = userProducts[user1Id][i];\r\n            for (uint256 j = i; j < length - 1; j++) {\r\n                userProducts[user1Id][j] = userProducts[user1Id][j + 1];\r\n            }\r\n            userProducts[user1Id].pop();\r\n            break;\r\n        }\r\n    }\r\n        updateOwner[_productId] = participants[user2Id].participantAddress;    //ownership changed to user2Id;\r\n        userProducts[user2Id].push(transferredProductId);\r\n   \r\n        return  true;\r\n\r\n         }\r\n           \r\n\r\n         else if(keccak256(abi.encode(st1)) == keccak256(abi.encode(\"Supplier\"))\r\n         && keccak256(abi.encode(st2)) == keccak256(abi.encode(\"Supplier\"))) {\r\n           require(updateOwner[_productId] != participants[user2Id].participantAddress,\"OwnerShip has changed\");\r\n             ownerships[_productId].ownerAddress = participants[user2Id].participantAddress;\r\n              ownerships[_productId].ownerId = user2Id;\r\n              ownerships[_productId].txTimestamp = uint32(block.timestamp);\r\n              products[_productId].productOwner = participants[user2Id].participantAddress;\r\n             // productTracker[_productId].push(user1Id);\r\n              productTracker[_productId].push(user2Id);\r\n             uint256 length = userProducts[user1Id].length;\r\n               uint32 transferredProductId;\r\n\r\n           for (i = 0; i < length; i++) {\r\n             if (userProducts[user1Id][i] == _productId) {\r\n            transferredProductId = userProducts[user1Id][i];\r\n            for (uint256 j = i; j < length - 1; j++) {\r\n                userProducts[user1Id][j] = userProducts[user1Id][j + 1];\r\n            }\r\n            userProducts[user1Id].pop();\r\n            break;\r\n        }\r\n    }\r\n   updateOwner[_productId] = participants[user2Id].participantAddress;    //ownership changed to user2Id\r\n    userProducts[user2Id].push(transferredProductId);\r\n\r\n              return  true;\r\n         }\r\n\r\n         else if(keccak256(abi.encode(st1)) == keccak256(abi.encode(\"Supplier\"))\r\n         && keccak256(abi.encode(st2)) == keccak256(abi.encode(\"Retailer\"))) {\r\n            require(updateOwner[_productId] != participants[user2Id].participantAddress,\"OwnerShip has changed\");\r\n             ownerships[_productId].ownerAddress = participants[user2Id].participantAddress;\r\n              ownerships[_productId].ownerId = user2Id;\r\n              ownerships[_productId].txTimestamp = uint32(block.timestamp);\r\n              products[_productId].productOwner = participants[user2Id].participantAddress;\r\n             // productTracker[_productId].push(user1Id);\r\n              productTracker[_productId].push(user2Id);\r\n             uint256 length = userProducts[user1Id].length;\r\n               uint32 transferredProductId;\r\n\r\n           for (i = 0; i < length; i++) {\r\n             if (userProducts[user1Id][i] == _productId) {\r\n            transferredProductId = userProducts[user1Id][i];\r\n            for (uint256 j = i; j < length - 1; j++) {\r\n                userProducts[user1Id][j] = userProducts[user1Id][j + 1];\r\n            }\r\n            userProducts[user1Id].pop();\r\n            break;\r\n        }\r\n    }\r\n          updateOwner[_productId] = participants[user2Id].participantAddress;    //ownership changed to user2Id\r\n          userProducts[user2Id].push(transferredProductId);\r\n              return  true;\r\n         }\r\n\r\n         else if(keccak256(abi.encode(st1)) == keccak256(abi.encode(\"Retailer\"))\r\n         && keccak256(abi.encode(st2)) == keccak256(abi.encode(\"Retailer\"))) {\r\n            require(updateOwner[_productId] != participants[user2Id].participantAddress,\"OwnerShip has changed\");\r\n             ownerships[_productId].ownerAddress = participants[user2Id].participantAddress;\r\n              ownerships[_productId].ownerId = user2Id;\r\n              ownerships[_productId].txTimestamp = uint32(block.timestamp);\r\n              products[_productId].productOwner = participants[user2Id].participantAddress;\r\n              //productTracker[_productId].push(user1Id);\r\n              productTracker[_productId].push(user2Id);\r\n             uint256 length = userProducts[user1Id].length;\r\n               uint32 transferredProductId;\r\n\r\n           for (i = 0; i < length; i++) {\r\n             if (userProducts[user1Id][i] == _productId) {\r\n            transferredProductId = userProducts[user1Id][i];\r\n            for (uint256 j = i; j < length - 1; j++) {\r\n                userProducts[user1Id][j] = userProducts[user1Id][j + 1];\r\n            }\r\n            userProducts[user1Id].pop();\r\n            break;\r\n        }\r\n    }\r\n             updateOwner[_productId] = participants[user2Id].participantAddress;    //ownership changed to user2Id\r\n             userProducts[user2Id].push(transferredProductId);\r\n\r\n              return  true;\r\n         }\r\n\r\n         else if(keccak256(abi.encode(st1)) == keccak256(abi.encode(\"Retailer\"))\r\n         && keccak256(abi.encode(st2)) == keccak256(abi.encode(\"Consumer\"))) {\r\n           require(updateOwner[_productId] != participants[user2Id].participantAddress,\"OwnerShip has changed\");\r\n            ownerships[_productId].ownerAddress = participants[user2Id].participantAddress;\r\n              ownerships[_productId].ownerId = user2Id;\r\n              ownerships[_productId].txTimestamp = uint32(block.timestamp);\r\n              products[_productId].productOwner = participants[user2Id].participantAddress;\r\n              //productTracker[_productId].push(user1Id);\r\n              productTracker[_productId].push(user2Id);\r\n              uint256 length = userProducts[user1Id].length;\r\n               uint32 transferredProductId;\r\n\r\n           for (i = 0; i < length; i++) {\r\n             if (userProducts[user1Id][i] == _productId) {\r\n            transferredProductId = userProducts[user1Id][i];\r\n            for (uint256 j = i; j < length - 1; j++) {\r\n                userProducts[user1Id][j] = userProducts[user1Id][j + 1];\r\n            }\r\n            userProducts[user1Id].pop();\r\n            break;\r\n        }\r\n    }\r\n             updateOwner[_productId] = participants[user2Id].participantAddress;    //ownership changed to user2Id\r\n              userProducts[user2Id].push(transferredProductId);\r\n\r\n              return  true;\r\n         }\r\n         return false;\r\n   } \r\n    \r\n    function getTracking(uint32 _productId) external view returns(uint32[] memory) {\r\n        return productTracker[_productId];\r\n    }\r\n\r\n    function getParticipantsProducts(uint32 partId) external view returns(uint32[] memory){\r\n        return userProducts[partId];\r\n    }\r\n\r\n    function getOwnership(uint32 _productId) public view returns(uint32,uint32,address) {\r\n        return(\r\n        ownerships[_productId].ownerId,\r\n        ownerships[_productId].txTimestamp,\r\n        ownerships[_productId].ownerAddress);\r\n    }\r\n\r\n}",
  "sourcePath": "C:\\Users\\HP\\Desktop\\SupplyChainDApp\\contracts\\finSupplyChain.sol",
  "compiler": {
    "name": "solc",
    "version": "0.8.17+commit.8df45f5f.Emscripten.clang"
  },
  "schemaVersion": "3.4.16",
  "updatedAt": "2024-07-22T16:33:43.546Z",
  "networkType": "ethereum",
  "devdoc": {
    "kind": "dev",
    "methods": {},
    "version": 1
  },
  "userdoc": {
    "kind": "user",
    "methods": {},
    "version": 1
  }
}